:02000000EF28E7
:08000800A308031D08280800ED
:10001000F930FF3E031D09280000A30B0828080043
:10002000FA30A3000420FA30A3000420FA30A30021
:100030000420FA30A3000420A20B1028080003308B
:1000400022020318A20A0130A3002208FF39031973
:100050002D280310A30DFF3E26282308A004200806
:1000600085000800033022020318A20A0130A30011
:10007000A4012208FF39031942280310A30DA40D7F
:10008000FF3E3A282309A0052008850008008312B6
:100090008501831685018312A2011F200230A20070
:1000A0001F200430A2001F200130A2001020A00158
:1000B00085010130A2001F200330A2001F20013063
:1000C000A2001020A0018501A10105302102031822
:1000D00074282108A2001F200130A200102021084E
:1000E000A2003220A10A65280330A100210A0319C9
:1000F00084282108A2001F200130A200102021081E
:10010000A2003220A10376283730A00085000130FC
:10011000A2001020A00185010130A20010200430AF
:10012000A100210A03199F282108A2001F200130E5
:10013000A20010202108A2003220A1039128013042
:10014000A100053021020318B0282108A2001F20B9
:100150000130A20010202108A2003220A10AA1280B
:100160003730A00085000130A2001020A0018501D9
:100170000130A2001020A101053021020318C82877
:100180002108A2001F200130A2001020A10ABC28D3
:100190000430A100210A0319D5282108A200322029
:1001A0000130A2001020A103CA280430A100210AB6
:1001B0000319E2282108A2001F200130A20010200C
:1001C000A103D728A1010530210203184B282108DB
:1001D000A20032200130A2001020A10AE3288312DD
:0801E000A0018A110A12472850
:02400E00C43FAD
:00000001FF
